{
  "contractName": "DigitalReserve",
  "abi": [
    {
      "inputs": [
        {
          "internalType": "address",
          "name": "_router",
          "type": "address"
        },
        {
          "internalType": "address",
          "name": "_drcAddress",
          "type": "address"
        },
        {
          "internalType": "string",
          "name": "_name",
          "type": "string"
        },
        {
          "internalType": "string",
          "name": "_symbol",
          "type": "string"
        }
      ],
      "stateMutability": "nonpayable",
      "type": "constructor"
    },
    {
      "anonymous": false,
      "inputs": [
        {
          "indexed": true,
          "internalType": "address",
          "name": "owner",
          "type": "address"
        },
        {
          "indexed": true,
          "internalType": "address",
          "name": "spender",
          "type": "address"
        },
        {
          "indexed": false,
          "internalType": "uint256",
          "name": "value",
          "type": "uint256"
        }
      ],
      "name": "Approval",
      "type": "event"
    },
    {
      "anonymous": false,
      "inputs": [
        {
          "indexed": true,
          "internalType": "address",
          "name": "user",
          "type": "address"
        },
        {
          "indexed": false,
          "internalType": "uint256",
          "name": "amount",
          "type": "uint256"
        },
        {
          "indexed": false,
          "internalType": "uint256",
          "name": "podMinted",
          "type": "uint256"
        },
        {
          "indexed": false,
          "internalType": "uint256",
          "name": "podTotalSupply",
          "type": "uint256"
        },
        {
          "indexed": false,
          "internalType": "uint256[]",
          "name": "tokensStored",
          "type": "uint256[]"
        }
      ],
      "name": "Deposit",
      "type": "event"
    },
    {
      "anonymous": false,
      "inputs": [
        {
          "indexed": true,
          "internalType": "address",
          "name": "previousOwner",
          "type": "address"
        },
        {
          "indexed": true,
          "internalType": "address",
          "name": "newOwner",
          "type": "address"
        }
      ],
      "name": "OwnershipTransferred",
      "type": "event"
    },
    {
      "anonymous": false,
      "inputs": [
        {
          "indexed": false,
          "internalType": "address[]",
          "name": "strategyTokens",
          "type": "address[]"
        },
        {
          "indexed": false,
          "internalType": "uint8[]",
          "name": "tokenPercentage",
          "type": "uint8[]"
        },
        {
          "indexed": false,
          "internalType": "uint256[]",
          "name": "tokensStored",
          "type": "uint256[]"
        }
      ],
      "name": "Rebalance",
      "type": "event"
    },
    {
      "anonymous": false,
      "inputs": [
        {
          "indexed": false,
          "internalType": "address[]",
          "name": "oldTokens",
          "type": "address[]"
        },
        {
          "indexed": false,
          "internalType": "uint8[]",
          "name": "oldPercentage",
          "type": "uint8[]"
        },
        {
          "indexed": false,
          "internalType": "address[]",
          "name": "newTokens",
          "type": "address[]"
        },
        {
          "indexed": false,
          "internalType": "uint8[]",
          "name": "newPercentage",
          "type": "uint8[]"
        },
        {
          "indexed": false,
          "internalType": "uint256[]",
          "name": "tokensStored",
          "type": "uint256[]"
        }
      ],
      "name": "StrategyChange",
      "type": "event"
    },
    {
      "anonymous": false,
      "inputs": [
        {
          "indexed": true,
          "internalType": "address",
          "name": "from",
          "type": "address"
        },
        {
          "indexed": true,
          "internalType": "address",
          "name": "to",
          "type": "address"
        },
        {
          "indexed": false,
          "internalType": "uint256",
          "name": "value",
          "type": "uint256"
        }
      ],
      "name": "Transfer",
      "type": "event"
    },
    {
      "anonymous": false,
      "inputs": [
        {
          "indexed": true,
          "internalType": "address",
          "name": "user",
          "type": "address"
        },
        {
          "indexed": false,
          "internalType": "uint256",
          "name": "amount",
          "type": "uint256"
        },
        {
          "indexed": false,
          "internalType": "uint256",
          "name": "fees",
          "type": "uint256"
        },
        {
          "indexed": false,
          "internalType": "uint256",
          "name": "podBurned",
          "type": "uint256"
        },
        {
          "indexed": false,
          "internalType": "uint256",
          "name": "podTotalSupply",
          "type": "uint256"
        },
        {
          "indexed": false,
          "internalType": "uint256[]",
          "name": "tokensStored",
          "type": "uint256[]"
        }
      ],
      "name": "Withdraw",
      "type": "event"
    },
    {
      "inputs": [
        {
          "internalType": "address",
          "name": "owner",
          "type": "address"
        },
        {
          "internalType": "address",
          "name": "spender",
          "type": "address"
        }
      ],
      "name": "allowance",
      "outputs": [
        {
          "internalType": "uint256",
          "name": "",
          "type": "uint256"
        }
      ],
      "stateMutability": "view",
      "type": "function",
      "constant": true
    },
    {
      "inputs": [
        {
          "internalType": "address",
          "name": "spender",
          "type": "address"
        },
        {
          "internalType": "uint256",
          "name": "amount",
          "type": "uint256"
        }
      ],
      "name": "approve",
      "outputs": [
        {
          "internalType": "bool",
          "name": "",
          "type": "bool"
        }
      ],
      "stateMutability": "nonpayable",
      "type": "function"
    },
    {
      "inputs": [
        {
          "internalType": "address",
          "name": "account",
          "type": "address"
        }
      ],
      "name": "balanceOf",
      "outputs": [
        {
          "internalType": "uint256",
          "name": "",
          "type": "uint256"
        }
      ],
      "stateMutability": "view",
      "type": "function",
      "constant": true
    },
    {
      "inputs": [],
      "name": "decimals",
      "outputs": [
        {
          "internalType": "uint8",
          "name": "",
          "type": "uint8"
        }
      ],
      "stateMutability": "view",
      "type": "function",
      "constant": true
    },
    {
      "inputs": [
        {
          "internalType": "address",
          "name": "spender",
          "type": "address"
        },
        {
          "internalType": "uint256",
          "name": "subtractedValue",
          "type": "uint256"
        }
      ],
      "name": "decreaseAllowance",
      "outputs": [
        {
          "internalType": "bool",
          "name": "",
          "type": "bool"
        }
      ],
      "stateMutability": "nonpayable",
      "type": "function"
    },
    {
      "inputs": [
        {
          "internalType": "address",
          "name": "spender",
          "type": "address"
        },
        {
          "internalType": "uint256",
          "name": "addedValue",
          "type": "uint256"
        }
      ],
      "name": "increaseAllowance",
      "outputs": [
        {
          "internalType": "bool",
          "name": "",
          "type": "bool"
        }
      ],
      "stateMutability": "nonpayable",
      "type": "function"
    },
    {
      "inputs": [],
      "name": "name",
      "outputs": [
        {
          "internalType": "string",
          "name": "",
          "type": "string"
        }
      ],
      "stateMutability": "view",
      "type": "function",
      "constant": true
    },
    {
      "inputs": [],
      "name": "owner",
      "outputs": [
        {
          "internalType": "address",
          "name": "",
          "type": "address"
        }
      ],
      "stateMutability": "view",
      "type": "function",
      "constant": true
    },
    {
      "inputs": [],
      "name": "renounceOwnership",
      "outputs": [],
      "stateMutability": "nonpayable",
      "type": "function"
    },
    {
      "inputs": [],
      "name": "symbol",
      "outputs": [
        {
          "internalType": "string",
          "name": "",
          "type": "string"
        }
      ],
      "stateMutability": "view",
      "type": "function",
      "constant": true
    },
    {
      "inputs": [],
      "name": "totalSupply",
      "outputs": [
        {
          "internalType": "uint256",
          "name": "",
          "type": "uint256"
        }
      ],
      "stateMutability": "view",
      "type": "function",
      "constant": true
    },
    {
      "inputs": [
        {
          "internalType": "address",
          "name": "recipient",
          "type": "address"
        },
        {
          "internalType": "uint256",
          "name": "amount",
          "type": "uint256"
        }
      ],
      "name": "transfer",
      "outputs": [
        {
          "internalType": "bool",
          "name": "",
          "type": "bool"
        }
      ],
      "stateMutability": "nonpayable",
      "type": "function"
    },
    {
      "inputs": [
        {
          "internalType": "address",
          "name": "sender",
          "type": "address"
        },
        {
          "internalType": "address",
          "name": "recipient",
          "type": "address"
        },
        {
          "internalType": "uint256",
          "name": "amount",
          "type": "uint256"
        }
      ],
      "name": "transferFrom",
      "outputs": [
        {
          "internalType": "bool",
          "name": "",
          "type": "bool"
        }
      ],
      "stateMutability": "nonpayable",
      "type": "function"
    },
    {
      "inputs": [
        {
          "internalType": "address",
          "name": "newOwner",
          "type": "address"
        }
      ],
      "name": "transferOwnership",
      "outputs": [],
      "stateMutability": "nonpayable",
      "type": "function"
    },
    {
      "inputs": [],
      "name": "strategyTokenCount",
      "outputs": [
        {
          "internalType": "uint256",
          "name": "",
          "type": "uint256"
        }
      ],
      "stateMutability": "view",
      "type": "function",
      "constant": true
    },
    {
      "inputs": [
        {
          "internalType": "uint8",
          "name": "index",
          "type": "uint8"
        }
      ],
      "name": "strategyTokens",
      "outputs": [
        {
          "internalType": "address",
          "name": "",
          "type": "address"
        },
        {
          "internalType": "uint8",
          "name": "",
          "type": "uint8"
        }
      ],
      "stateMutability": "view",
      "type": "function",
      "constant": true
    },
    {
      "inputs": [],
      "name": "withdrawalFee",
      "outputs": [
        {
          "internalType": "uint8",
          "name": "",
          "type": "uint8"
        },
        {
          "internalType": "uint8",
          "name": "",
          "type": "uint8"
        }
      ],
      "stateMutability": "view",
      "type": "function",
      "constant": true
    },
    {
      "inputs": [],
      "name": "priceDecimals",
      "outputs": [
        {
          "internalType": "uint8",
          "name": "",
          "type": "uint8"
        }
      ],
      "stateMutability": "view",
      "type": "function",
      "constant": true
    },
    {
      "inputs": [],
      "name": "totalTokenStored",
      "outputs": [
        {
          "internalType": "uint256[]",
          "name": "",
          "type": "uint256[]"
        }
      ],
      "stateMutability": "view",
      "type": "function",
      "constant": true
    },
    {
      "inputs": [
        {
          "internalType": "address",
          "name": "user",
          "type": "address"
        },
        {
          "internalType": "uint8",
          "name": "percentage",
          "type": "uint8"
        }
      ],
      "name": "getUserVaultInDrc",
      "outputs": [
        {
          "internalType": "uint256",
          "name": "",
          "type": "uint256"
        },
        {
          "internalType": "uint256",
          "name": "",
          "type": "uint256"
        },
        {
          "internalType": "uint256",
          "name": "",
          "type": "uint256"
        }
      ],
      "stateMutability": "view",
      "type": "function",
      "constant": true
    },
    {
      "inputs": [],
      "name": "getProofOfDepositPrice",
      "outputs": [
        {
          "internalType": "uint256",
          "name": "",
          "type": "uint256"
        }
      ],
      "stateMutability": "view",
      "type": "function",
      "constant": true
    },
    {
      "inputs": [
        {
          "internalType": "uint256",
          "name": "drcAmount",
          "type": "uint256"
        }
      ],
      "name": "depositPriceImpact",
      "outputs": [
        {
          "internalType": "uint256",
          "name": "",
          "type": "uint256"
        }
      ],
      "stateMutability": "view",
      "type": "function",
      "constant": true
    },
    {
      "inputs": [
        {
          "internalType": "uint256",
          "name": "drcAmount",
          "type": "uint256"
        },
        {
          "internalType": "uint32",
          "name": "deadline",
          "type": "uint32"
        }
      ],
      "name": "depositDrc",
      "outputs": [],
      "stateMutability": "nonpayable",
      "type": "function"
    },
    {
      "inputs": [
        {
          "internalType": "uint256",
          "name": "drcAmount",
          "type": "uint256"
        },
        {
          "internalType": "uint32",
          "name": "deadline",
          "type": "uint32"
        }
      ],
      "name": "withdrawDrc",
      "outputs": [],
      "stateMutability": "nonpayable",
      "type": "function"
    },
    {
      "inputs": [
        {
          "internalType": "uint8",
          "name": "percentage",
          "type": "uint8"
        },
        {
          "internalType": "uint32",
          "name": "deadline",
          "type": "uint32"
        }
      ],
      "name": "withdrawPercentage",
      "outputs": [],
      "stateMutability": "nonpayable",
      "type": "function"
    },
    {
      "inputs": [
        {
          "internalType": "bool",
          "name": "status",
          "type": "bool"
        }
      ],
      "name": "changeDepositStatus",
      "outputs": [],
      "stateMutability": "nonpayable",
      "type": "function"
    },
    {
      "inputs": [
        {
          "internalType": "uint8",
          "name": "withdrawalFeeFraction_",
          "type": "uint8"
        },
        {
          "internalType": "uint8",
          "name": "withdrawalFeeBase_",
          "type": "uint8"
        }
      ],
      "name": "changeFee",
      "outputs": [],
      "stateMutability": "nonpayable",
      "type": "function"
    },
    {
      "inputs": [
        {
          "internalType": "address[]",
          "name": "strategyTokens_",
          "type": "address[]"
        },
        {
          "internalType": "uint8[]",
          "name": "tokenPercentage_",
          "type": "uint8[]"
        },
        {
          "internalType": "uint32",
          "name": "deadline",
          "type": "uint32"
        }
      ],
      "name": "changeStrategy",
      "outputs": [],
      "stateMutability": "nonpayable",
      "type": "function"
    },
    {
      "inputs": [
        {
          "internalType": "uint32",
          "name": "deadline",
          "type": "uint32"
        }
      ],
      "name": "rebalance",
      "outputs": [],
      "stateMutability": "nonpayable",
      "type": "function"
    }
  ],
  "bytecode": "0x60a060405260078054600160ff199091161761ff0019166164001760ff60b01b191690553480156200003057600080fd5b5060405162005a5738038062005a57833981810160405260808110156200005657600080fd5b815160208301516040808501805191519395929483019291846401000000008211156200008257600080fd5b9083019060208201858111156200009857600080fd5b8251640100000000811182820188101715620000b357600080fd5b82525081516020918201929091019080838360005b83811015620000e2578181015183820152602001620000c8565b50505050905090810190601f168015620001105780820380516001836020036101000a031916815260200191505b50604052602001805160405193929190846401000000008211156200013457600080fd5b9083019060208201858111156200014a57600080fd5b82516401000000008111828201881017156200016557600080fd5b82525081516020918201929091019080838360005b83811015620001945781810151838201526020016200017a565b50505050905090810190601f168015620001c25780820380516001836020036101000a031916815260200191505b50604052505082518391508290620001e2906003906020850190620002b1565b508051620001f8906004906020840190620002b1565b50506005805460ff1916601217905550600062000214620002ad565b60058054610100600160a81b0319166101006001600160a01b03841690810291909117909155604051919250906000907f8be0079c531659141344cd1fd0a4f28419497f9722a3daafe3b4186f6b6457e0908290a350506007805462010000600160b01b031916620100006001600160a01b039490941693909302929092179091555060601b6001600160601b0319166080526200034d565b3390565b828054600181600116156101000203166002900490600052602060002090601f016020900481019282601f10620002f457805160ff191683800117855562000324565b8280016001018555821562000324579182015b828111156200032457825182559160200191906001019062000307565b506200033292915062000336565b5090565b5b8082111562000332576000815560010162000337565b60805160601c615697620003c06000398061105552806111705280612da752806133aa52806134d452806135c7528061364452806137bc5280613bc55280613f6552806140b752806141525280614234528061480452806149a85280614a6d5280614b4d5280614d5f52506156976000f3fe608060405234801561001057600080fd5b50600436106101ce5760003560e01c806370a0823111610104578063a22af857116100a2578063bd80662111610071578063bd806621146106ed578063dd62ed3e14610745578063df9f856414610780578063f2fde38b14610788576101ce565b8063a22af85714610594578063a457c2d71461065c578063a47c12b514610695578063a9059cbb146106b4576101ce565b806380a35fbb116100de57806380a35fbb1461050d5780638bc7e8c4146105305780638da5cb5b1461055b57806395d89b411461058c576101ce565b806370a0823114610478578063715018a6146104ab5780637b123c3a146104b3576101ce565b8063313ce567116101715780634976c0591161014b5780634976c059146103de5780634c183918146103fb5780636c3f4e07146104245780636f827c341461044c576101ce565b8063313ce56714610372578063395093511461037a57806347e6dece146103b3576101ce565b8063095ea7b3116101ad578063095ea7b3146102c057806318160ddd1461030d57806318181a9c1461032757806323b872dd1461032f576101ce565b80627865b5146101d357806305300b281461022557806306fdde0314610243575b600080fd5b6101f3600480360360208110156101e957600080fd5b503560ff166107bb565b6040805173ffffffffffffffffffffffffffffffffffffffff909316835260ff90911660208301528051918290030190f35b61022d610835565b6040805160ff9092168252519081900360200190f35b61024b61083a565b6040805160208082528351818301528351919283929083019185019080838360005b8381101561028557818101518382015260200161026d565b50505050905090810190601f1680156102b25780820380516001836020036101000a031916815260200191505b509250505060405180910390f35b6102f9600480360360408110156102d657600080fd5b5073ffffffffffffffffffffffffffffffffffffffff81351690602001356108ee565b604080519115158252519081900360200190f35b61031561090c565b60408051918252519081900360200190f35b610315610912565b6102f96004803603606081101561034557600080fd5b5073ffffffffffffffffffffffffffffffffffffffff813581169160208101359091169060400135610961565b61022d610a03565b6102f96004803603604081101561039057600080fd5b5073ffffffffffffffffffffffffffffffffffffffff8135169060200135610a0c565b6103dc600480360360408110156103c957600080fd5b508035906020013563ffffffff16610a67565b005b610315600480360360208110156103f457600080fd5b5035610f80565b6103dc6004803603604081101561041157600080fd5b508035906020013563ffffffff16610fbc565b6103dc6004803603604081101561043a57600080fd5b5060ff8135811691602001351661140f565b6103dc6004803603604081101561046257600080fd5b50803560ff16906020013563ffffffff166115ef565b6103156004803603602081101561048e57600080fd5b503573ffffffffffffffffffffffffffffffffffffffff16611674565b6103dc61169c565b6104ef600480360360408110156104c957600080fd5b50803573ffffffffffffffffffffffffffffffffffffffff16906020013560ff166117a6565b60408051938452602084019290925282820152519081900360600190f35b6103dc6004803603602081101561052357600080fd5b503563ffffffff16611888565b610538612024565b604051808360ff1681526020018260ff1681526020019250505060405180910390f35b610563612037565b6040805173ffffffffffffffffffffffffffffffffffffffff9092168252519081900360200190f35b61024b612058565b6103dc600480360360608110156105aa57600080fd5b8101906020810181356401000000008111156105c557600080fd5b8201836020820111156105d757600080fd5b803590602001918460208302840111640100000000831117156105f957600080fd5b91939092909160208101903564010000000081111561061757600080fd5b82018360208201111561062957600080fd5b8035906020019184602083028401116401000000008311171561064b57600080fd5b91935091503563ffffffff166120d7565b6102f96004803603604081101561067257600080fd5b5073ffffffffffffffffffffffffffffffffffffffff81351690602001356127b2565b6103dc600480360360208110156106ab57600080fd5b50351515612827565b6102f9600480360360408110156106ca57600080fd5b5073ffffffffffffffffffffffffffffffffffffffff8135169060200135612909565b6106f561291d565b60408051602080825283518183015283519192839290830191858101910280838360005b83811015610731578181015183820152602001610719565b505050509050019250505060405180910390f35b6103156004803603604081101561075b57600080fd5b5073ffffffffffffffffffffffffffffffffffffffff81358116916020013516612a5b565b610315612a93565b6103dc6004803603602081101561079e57600080fd5b503573ffffffffffffffffffffffffffffffffffffffff16612a99565b60008060068360ff16815481106107ce57fe5b6000918252602090912001546006805473ffffffffffffffffffffffffffffffffffffffff9092169160ff861690811061080457fe5b60009182526020909120015490947401000000000000000000000000000000000000000090910460ff169350915050565b601290565b60038054604080516020601f60027fffffffffffffffffffffffffffffffffffffffffffffffffffffffffffffffff6101006001881615020190951694909404938401819004810282018101909252828152606093909290918301828280156108e45780601f106108b9576101008083540402835291602001916108e4565b820191906000526020600020905b8154815290600101906020018083116108c757829003601f168201915b5050505050905090565b60006109026108fb612c33565b8484612c37565b5060015b92915050565b60025490565b6000808061091e61090c565b111561095c5761095961092f61090c565b610953670de0b6b3a764000061094d61094661291d565b6001612d7e565b90612f61565b90612fd4565b90505b905090565b600061096e848484613016565b6109f88461097a612c33565b6109f38560405180606001604052806028815260200161548b6028913973ffffffffffffffffffffffffffffffffffffffff8a166000908152600160205260408120906109c5612c33565b73ffffffffffffffffffffffffffffffffffffffff16815260208101919091526040016000205491906131e6565b612c37565b5060015b9392505050565b60055460ff1690565b6000610902610a19612c33565b846109f38560016000610a2a612c33565b73ffffffffffffffffffffffffffffffffffffffff908116825260208083019390935260409182016000908120918c168152925290205490613297565b6001610a71612a93565b1015610ade57604080517f08c379a000000000000000000000000000000000000000000000000000000000815260206004820152601960248201527f5374726174656779206861736e2774206265656e207365742e00000000000000604482015290519081900360640190fd5b600754760100000000000000000000000000000000000000000000900460ff16610b6957604080517f08c379a000000000000000000000000000000000000000000000000000000000815260206004820152601460248201527f4465706f7369742069732064697361626c65642e000000000000000000000000604482015290519081900360640190fd5b600754604080517fdd62ed3e0000000000000000000000000000000000000000000000000000000081523360048201523060248201529051849262010000900473ffffffffffffffffffffffffffffffffffffffff169163dd62ed3e916044808301926020929190829003018186803b158015610be557600080fd5b505afa158015610bf9573d6000803e3d6000fd5b505050506040513d6020811015610c0f57600080fd5b50511015610c68576040517f08c379a000000000000000000000000000000000000000000000000000000000815260040180806020018281038252602c815260200180615611602c913960400191505060405180910390fd5b600754604080517f70a082310000000000000000000000000000000000000000000000000000000081523360048201529051849262010000900473ffffffffffffffffffffffffffffffffffffffff16916370a08231916024808301926020929190829003018186803b158015610cde57600080fd5b505afa158015610cf2573d6000803e3d6000fd5b505050506040513d6020811015610d0857600080fd5b50511015610d61576040517f08c379a00000000000000000000000000000000000000000000000000000000081526004018080602001828103825260278152602001806152d86027913960400191505060405180910390fd5b6000610d6c83610f80565b60075490915060009060ff8082166101009092048116820116906127100261ffff1681610d9557fe5b0461ffff16905080606401821115610df8576040517f08c379a00000000000000000000000000000000000000000000000000000000081526004018080602001828103825260408152602001806155266040913960400191505060405180910390fd5b600754610e239062010000900473ffffffffffffffffffffffffffffffffffffffff1633308761330b565b6000610e2d610912565b90506000610e5e86600760029054906101000a900473ffffffffffffffffffffffffffffffffffffffff16876133a6565b9050610e6a818661399b565b506000610e7561090c565b610e9157610e8a8766038d7ea4c68000612f61565b9050610ed1565b6000610e9e61094661291d565b90506000610eb88561095384670de0b6b3a7640000612f61565b9050610ecc610ec561090c565b8290613a49565b925050505b610edb3382613a8b565b337fb6612cab106733f4b1d00a1ce087eec48ed4655a50cf2faa2e46ff415db691b98883610f0761090c565b610f0f61291d565b6040518085815260200184815260200183815260200180602001828103825283818151815260200191508051906020019060200280838360005b83811015610f61578181015183820152602001610f49565b505050509050019550505050505060405180910390a250505050505050565b600080610fb183600760029054906101000a900473ffffffffffffffffffffffffffffffffffffffff166000613bbc565b90506109fc81613c63565b6000610fc733611674565b1161103357604080517f08c379a000000000000000000000000000000000000000000000000000000000815260206004820152601260248201527f5661756c742062616c616e636520697320300000000000000000000000000000604482015290519081900360640190fd5b60408051600280825260608083018452926020830190803683370190505090507f000000000000000000000000000000000000000000000000000000000000000073ffffffffffffffffffffffffffffffffffffffff1663ad5c46486040518163ffffffff1660e01b815260040160206040518083038186803b1580156110b957600080fd5b505afa1580156110cd573d6000803e3d6000fd5b505050506040513d60208110156110e357600080fd5b5051815182906000906110f257fe5b73ffffffffffffffffffffffffffffffffffffffff9283166020918202929092010152600754825162010000909104909116908290600190811061113257fe5b602002602001019073ffffffffffffffffffffffffffffffffffffffff16908173ffffffffffffffffffffffffffffffffffffffff168152505060007f000000000000000000000000000000000000000000000000000000000000000073ffffffffffffffffffffffffffffffffffffffff16631f00ca7485846040518363ffffffff1660e01b81526004018083815260200180602001828103825283818151815260200191508051906020019060200280838360005b838110156112015781810151838201526020016111e9565b50505050905001935050505060006040518083038186803b15801561122557600080fd5b505afa158015611239573d6000803e3d6000fd5b505050506040513d6000823e601f3d9081017fffffffffffffffffffffffffffffffffffffffffffffffffffffffffffffffe0168201604052602081101561128057600080fd5b81019080805160405193929190846401000000008211156112a057600080fd5b9083019060208201858111156112b557600080fd5b82518660208202830111640100000000821117156112d257600080fd5b82525081516020918201928201910280838360005b838110156112ff5781810151838201526020016112e7565b5050505090500160405250505060008151811061131857fe5b602090810291909101015160075490915060009061134a9060ff61010082048116916109539186918116840116612f61565b9050606061135f61135a33611674565b613d31565b9050600061136e826000612d7e565b9050828110156113c9576040517f08c379a000000000000000000000000000000000000000000000000000000000815260040180806020018281038252602d8152602001806154b3602d913960400191505060405180910390fd5b60006113de82610953866402540be400612f61565b905060006113f86402540be4006109538461094d33611674565b90506114048189613eb1565b505050505050505050565b611417612c33565b600554610100900473ffffffffffffffffffffffffffffffffffffffff9081169116146114a557604080517f08c379a000000000000000000000000000000000000000000000000000000000815260206004820181905260248201527f4f776e61626c653a2063616c6c6572206973206e6f7420746865206f776e6572604482015290519081900360640190fd5b8060ff168260ff16111561151a57604080517f08c379a000000000000000000000000000000000000000000000000000000000815260206004820152601b60248201527f466565206672616374696f6e20657863656564656420626173652e0000000000604482015290519081900360640190fd5b60008160ff168360640260ff168161152e57fe5b04905060028160ff16111561158e576040517f08c379a000000000000000000000000000000000000000000000000000000000815260040180806020018281038252602981526020018061538c6029913960400191505060405180910390fd5b506007805460ff928316610100027fffffffffffffffffffffffffffffffffffffffffffffffffffffffffffff00ff949093167fffffffffffffffffffffffffffffffffffffffffffffffffffffffffffffff009091161792909216179055565b60648260ff16111561164c576040517f08c379a000000000000000000000000000000000000000000000000000000000815260040180806020018281038252602f8152602001806153fe602f913960400191505060405180910390fd5b600061166360646109538560ff1661094d33611674565b905061166f8183613eb1565b505050565b73ffffffffffffffffffffffffffffffffffffffff1660009081526020819052604090205490565b6116a4612c33565b600554610100900473ffffffffffffffffffffffffffffffffffffffff90811691161461173257604080517f08c379a000000000000000000000000000000000000000000000000000000000815260206004820181905260248201527f4f776e61626c653a2063616c6c6572206973206e6f7420746865206f776e6572604482015290519081900360640190fd5b600554604051600091610100900473ffffffffffffffffffffffffffffffffffffffff16907f8be0079c531659141344cd1fd0a4f28419497f9722a3daafe3b4186f6b6457e0908390a3600580547fffffffffffffffffffffff0000000000000000000000000000000000000000ff169055565b600080600060606117c561135a60646109538860ff1661094d8b611674565b905060006117d4826001612d7e565b905060006117e3836000612d7e565b9050600061181583600760029054906101000a900473ffffffffffffffffffffffffffffffffffffffff1660016140af565b60075490915060009061183e9060ff808216610100909204811682011690610953908690612f61565b9050600061187561184f8584613a49565b60075462010000900473ffffffffffffffffffffffffffffffffffffffff1660006140af565b9298509196509450505050509250925092565b611890612c33565b600554610100900473ffffffffffffffffffffffffffffffffffffffff90811691161461191e57604080517f08c379a000000000000000000000000000000000000000000000000000000000815260206004820181905260248201527f4f776e61626c653a2063616c6c6572206973206e6f7420746865206f776e6572604482015290519081900360640190fd5b6000611928612a93565b1161199457604080517f08c379a000000000000000000000000000000000000000000000000000000000815260206004820152601860248201527f5374726174656779206861736e2774206265656e207365740000000000000000604482015290519081900360640190fd5b600060606119a0612a93565b67ffffffffffffffff811180156119b657600080fd5b506040519080825280602002602001820160405280156119e0578160200160208202803683370190505b50905060005b6119ee612a93565b8160ff161015611af057600060068260ff1681548110611a0a57fe5b6000918252602080832090910154604080517f70a08231000000000000000000000000000000000000000000000000000000008152306004820152905173ffffffffffffffffffffffffffffffffffffffff9092169450611abd9285926370a08231926024808201939291829003018186803b158015611a8957600080fd5b505afa158015611a9d573d6000803e3d6000fd5b505050506040513d6020811015611ab357600080fd5b5051836001613bbc565b9050611ac98582613297565b945080848460ff1681518110611adb57fe5b602090810291909101015250506001016119e6565b506060611afb612a93565b67ffffffffffffffff81118015611b1157600080fd5b50604051908082528060200260200182016040528015611b3b578160200160208202803683370190505b5090506060611b48612a93565b67ffffffffffffffff81118015611b5e57600080fd5b50604051908082528060200260200182016040528015611b88578160200160208202803683370190505b5090506000806060611b98612a93565b67ffffffffffffffff81118015611bae57600080fd5b50604051908082528060200260200182016040528015611bd8578160200160208202803683370190505b50905060005b611be6612a93565b8160ff161015611e7d5760068160ff1681548110611c0057fe5b600091825260209091200154865173ffffffffffffffffffffffffffffffffffffffff90911690879060ff8416908110611c3657fe5b602002602001019073ffffffffffffffffffffffffffffffffffffffff16908173ffffffffffffffffffffffffffffffffffffffff168152505060068160ff1681548110611c8057fe5b9060005260206000200160000160149054906101000a900460ff16858260ff1681518110611caa57fe5b602002602001019060ff16908160ff16815250506000611d06606461095360068560ff1681548110611cd857fe5b6000918252602090912001548c9074010000000000000000000000000000000000000000900460ff16612f61565b905080888360ff1681518110611d1857fe5b602002602001015111611d9957611d4e888360ff1681518110611d3757fe5b602002602001015182613a4990919063ffffffff16565b838360ff1681518110611d5d57fe5b602002602001018181525050611d92838360ff1681518110611d7b57fe5b60200260200101518661329790919063ffffffff16565b9450611e74565b6000838360ff1681518110611daa57fe5b6020026020010181815250506000611de1828a8560ff1681518110611dcb57fe5b6020026020010151613a4990919063ffffffff16565b90506000611e228260068660ff1681548110611df957fe5b60009182526020909120015473ffffffffffffffffffffffffffffffffffffffff1660016140af565b90506000611e628260068760ff1681548110611e3a57fe5b60009182526020909120015473ffffffffffffffffffffffffffffffffffffffff168f6133a6565b9050611e6e8782613297565b96505050505b50600101611bde565b508215611f125760005b611e8f612a93565b8160ff161015611f10576000611ec885610953858560ff1681518110611eb157fe5b602002602001015187612f6190919063ffffffff16565b9050611f068160068460ff1681548110611ede57fe5b60009182526020909120015473ffffffffffffffffffffffffffffffffffffffff168c61414e565b5050600101611e87565b505b7f266da61503975711d4058ea98596fa73002f2ba34e14a1984d6b6c9f5d1659918585611f3d61291d565b60405180806020018060200180602001848103845287818151815260200191508051906020019060200280838360005b83811015611f85578181015183820152602001611f6d565b50505050905001848103835286818151815260200191508051906020019060200280838360005b83811015611fc4578181015183820152602001611fac565b50505050905001848103825285818151815260200191508051906020019060200280838360005b83811015612003578181015183820152602001611feb565b50505050905001965050505050505060405180910390a15050505050505050565b60075460ff808216916101009004169091565b600554610100900473ffffffffffffffffffffffffffffffffffffffff1690565b60048054604080516020601f60027fffffffffffffffffffffffffffffffffffffffffffffffffffffffffffffffff6101006001881615020190951694909404938401819004810282018101909252828152606093909290918301828280156108e45780601f106108b9576101008083540402835291602001916108e4565b6120df612c33565b600554610100900473ffffffffffffffffffffffffffffffffffffffff90811691161461216d57604080517f08c379a000000000000000000000000000000000000000000000000000000000815260206004820181905260248201527f4f776e61626c653a2063616c6c6572206973206e6f7420746865206f776e6572604482015290519081900360640190fd5b60018410156121dd57604080517f08c379a000000000000000000000000000000000000000000000000000000000815260206004820152601d60248201527f53657474696e6720737472617465677920746f203020746f6b656e732e000000604482015290519081900360640190fd5b6005841115612237576040517f08c379a000000000000000000000000000000000000000000000000000000000815260040180806020018281038252602781526020018061558a6027913960400191505060405180910390fd5b83821461228f576040517f08c379a000000000000000000000000000000000000000000000000000000000815260040180806020018281038252603d81526020018061542d603d913960400191505060405180910390fd5b6000805b60ff81168411156122cd576122c385858360ff168181106122b057fe5b859260ff60209092020135169050613297565b9150600101612293565b5080606414612327576040517f08c379a00000000000000000000000000000000000000000000000000000000081526004018080602001828103825260238152602001806153b56023913960400191505060405180910390fd5b6060612331612a93565b67ffffffffffffffff8111801561234757600080fd5b50604051908082528060200260200182016040528015612371578160200160208202803683370190505b509050606061237e612a93565b67ffffffffffffffff8111801561239457600080fd5b506040519080825280602002602001820160405280156123be578160200160208202803683370190505b50905060005b6123cc612a93565b8160ff1610156124aa5760068160ff16815481106123e657fe5b600091825260209091200154835173ffffffffffffffffffffffffffffffffffffffff90911690849060ff841690811061241c57fe5b602002602001019073ffffffffffffffffffffffffffffffffffffffff16908173ffffffffffffffffffffffffffffffffffffffff168152505060068160ff168154811061246657fe5b9060005260206000200160000160149054906101000a900460ff16828260ff168151811061249057fe5b60ff909216602092830291909101909101526001016123c4565b5060006124be6124b861291d565b86614319565b90506124cc6006600061527b565b60005b60ff81168911156125f357600660405180604001604052808c8c8560ff168181106124f657fe5b9050602002013573ffffffffffffffffffffffffffffffffffffffff1673ffffffffffffffffffffffffffffffffffffffff1681526020018a8a8560ff1681811061253d57fe5b6020908102929092013560ff9081169093525083546001808201865560009586529482902084519101805494909201517fffffffffffffffffffffffff000000000000000000000000000000000000000090941673ffffffffffffffffffffffffffffffffffffffff909116177fffffffffffffffffffffff00ffffffffffffffffffffffffffffffffffffffff16740100000000000000000000000000000000000000009390921692909202179055016124cf565b506125fe818661399b565b507f78798c5f9f4b9bd15a3bce2ae480205cb99cf5b89b89b1bb505168c66887a94883838b8b8b8b61262e61291d565b60405180806020018060200180602001806020018060200186810386528d818151815260200191508051906020019060200280838360005b8381101561267e578181015183820152602001612666565b5050505090500186810385528c818151815260200191508051906020019060200280838360005b838110156126bd5781810151838201526020016126a5565b5050505090500186810384528b8b82818152602001925060200280828437600083820152601f017fffffffffffffffffffffffffffffffffffffffffffffffffffffffffffffffe0169091018781038452898152602090810191508a908a02808284376000838201819052601f9091017fffffffffffffffffffffffffffffffffffffffffffffffffffffffffffffffe0169092018881038452895181528951602091820193828c0193509102908190849084905b8381101561278a578181015183820152602001612772565b505050509050019c5050505050505050505050505060405180910390a1505050505050505050565b60006109026127bf612c33565b846109f38560405180606001604052806025815260200161563d60259139600160006127e9612c33565b73ffffffffffffffffffffffffffffffffffffffff908116825260208083019390935260409182016000908120918d168152925290205491906131e6565b61282f612c33565b600554610100900473ffffffffffffffffffffffffffffffffffffffff9081169116146128bd57604080517f08c379a000000000000000000000000000000000000000000000000000000000815260206004820181905260248201527f4f776e61626c653a2063616c6c6572206973206e6f7420746865206f776e6572604482015290519081900360640190fd5b60078054911515760100000000000000000000000000000000000000000000027fffffffffffffffffff00ffffffffffffffffffffffffffffffffffffffffffff909216919091179055565b6000610902612916612c33565b8484613016565b606080612928612a93565b67ffffffffffffffff8111801561293e57600080fd5b50604051908082528060200260200182016040528015612968578160200160208202803683370190505b50905060005b612976612a93565b8160ff161015612a555760068160ff168154811061299057fe5b60009182526020918290200154604080517f70a08231000000000000000000000000000000000000000000000000000000008152306004820152905173ffffffffffffffffffffffffffffffffffffffff909216926370a0823192602480840193829003018186803b158015612a0557600080fd5b505afa158015612a19573d6000803e3d6000fd5b505050506040513d6020811015612a2f57600080fd5b50518251839060ff8416908110612a4257fe5b602090810291909101015260010161296e565b50905090565b73ffffffffffffffffffffffffffffffffffffffff918216600090815260016020908152604080832093909416825291909152205490565b60065490565b612aa1612c33565b600554610100900473ffffffffffffffffffffffffffffffffffffffff908116911614612b2f57604080517f08c379a000000000000000000000000000000000000000000000000000000000815260206004820181905260248201527f4f776e61626c653a2063616c6c6572206973206e6f7420746865206f776e6572604482015290519081900360640190fd5b73ffffffffffffffffffffffffffffffffffffffff8116612b9b576040517f08c379a00000000000000000000000000000000000000000000000000000000081526004018080602001828103825260268152602001806153446026913960400191505060405180910390fd5b60055460405173ffffffffffffffffffffffffffffffffffffffff80841692610100900416907f8be0079c531659141344cd1fd0a4f28419497f9722a3daafe3b4186f6b6457e090600090a36005805473ffffffffffffffffffffffffffffffffffffffff909216610100027fffffffffffffffffffffff0000000000000000000000000000000000000000ff909216919091179055565b3390565b73ffffffffffffffffffffffffffffffffffffffff8316612ca3576040517f08c379a00000000000000000000000000000000000000000000000000000000081526004018080602001828103825260248152602001806155666024913960400191505060405180910390fd5b73ffffffffffffffffffffffffffffffffffffffff8216612d0f576040517f08c379a000000000000000000000000000000000000000000000000000000000815260040180806020018281038252602281526020018061536a6022913960400191505060405180910390fd5b73ffffffffffffffffffffffffffffffffffffffff808416600081815260016020908152604080832094871680845294825291829020859055815185815291517f8c5be1e5ebec7d5bd14f71427d1e84f3dd0314c0f7b2291e5b200ac8c7c3b9259281900390910190a3505050565b6040805160028082526060808301845260009384939192906020830190803683370190505090507f000000000000000000000000000000000000000000000000000000000000000073ffffffffffffffffffffffffffffffffffffffff1663ad5c46486040518163ffffffff1660e01b815260040160206040518083038186803b158015612e0b57600080fd5b505afa158015612e1f573d6000803e3d6000fd5b505050506040513d6020811015612e3557600080fd5b5051815182906001908110612e4657fe5b602002602001019073ffffffffffffffffffffffffffffffffffffffff16908173ffffffffffffffffffffffffffffffffffffffff168152505060005b612e8b612a93565b8160ff161015612f5757600060068260ff1681548110612ea757fe5b6000918252602082200154845173ffffffffffffffffffffffffffffffffffffffff909116925082918591612ed857fe5b602002602001019073ffffffffffffffffffffffffffffffffffffffff16908173ffffffffffffffffffffffffffffffffffffffff16815250506000878360ff1681518110612f2357fe5b602002602001015190506000612f3a82848a613bbc565b9050612f468682613297565b95505060019092019150612e839050565b5090949350505050565b600082612f7057506000610906565b82820282848281612f7d57fe5b04146109fc576040517f08c379a000000000000000000000000000000000000000000000000000000000815260040180806020018281038252602181526020018061546a6021913960400191505060405180910390fd5b60006109fc83836040518060400160405280601a81526020017f536166654d6174683a206469766973696f6e206279207a65726f0000000000008152506143a3565b73ffffffffffffffffffffffffffffffffffffffff8316613082576040517f08c379a00000000000000000000000000000000000000000000000000000000081526004018080602001828103825260258152602001806155016025913960400191505060405180910390fd5b73ffffffffffffffffffffffffffffffffffffffff82166130ee576040517f08c379a00000000000000000000000000000000000000000000000000000000081526004018080602001828103825260238152602001806152ff6023913960400191505060405180910390fd5b6130f983838361166f565b613143816040518060600160405280602681526020016153d86026913973ffffffffffffffffffffffffffffffffffffffff861660009081526020819052604090205491906131e6565b73ffffffffffffffffffffffffffffffffffffffff808516600090815260208190526040808220939093559084168152205461317f9082613297565b73ffffffffffffffffffffffffffffffffffffffff8084166000818152602081815260409182902094909455805185815290519193928716927fddf252ad1be2c89b69c2b068fc378daa952ba7f163c4a11628f55a4df523b3ef92918290030190a3505050565b6000818484111561328f576040517f08c379a00000000000000000000000000000000000000000000000000000000081526004018080602001828103825283818151815260200191508051906020019080838360005b8381101561325457818101518382015260200161323c565b50505050905090810190601f1680156132815780820380516001836020036101000a031916815260200191505b509250505060405180910390fd5b505050900390565b6000828201838110156109fc57604080517f08c379a000000000000000000000000000000000000000000000000000000000815260206004820152601b60248201527f536166654d6174683a206164646974696f6e206f766572666c6f770000000000604482015290519081900360640190fd5b6040805173ffffffffffffffffffffffffffffffffffffffff80861660248301528416604482015260648082018490528251808303909101815260849091019091526020810180517bffffffffffffffffffffffffffffffffffffffffffffffffffffffff167f23b872dd000000000000000000000000000000000000000000000000000000001790526133a0908590614422565b50505050565b60007f000000000000000000000000000000000000000000000000000000000000000073ffffffffffffffffffffffffffffffffffffffff1663ad5c46486040518163ffffffff1660e01b815260040160206040518083038186803b15801561340e57600080fd5b505afa158015613422573d6000803e3d6000fd5b505050506040513d602081101561343857600080fd5b505173ffffffffffffffffffffffffffffffffffffffff8481169116148061345e575083155b1561346a5750826109fc565b6040805160028082526060808301845292602083019080368337019050509050838160008151811061349857fe5b602002602001019073ffffffffffffffffffffffffffffffffffffffff16908173ffffffffffffffffffffffffffffffffffffffff16815250507f000000000000000000000000000000000000000000000000000000000000000073ffffffffffffffffffffffffffffffffffffffff1663ad5c46486040518163ffffffff1660e01b815260040160206040518083038186803b15801561353857600080fd5b505afa15801561354c573d6000803e3d6000fd5b505050506040513d602081101561356257600080fd5b505181518290600190811061357357fe5b602002602001019073ffffffffffffffffffffffffffffffffffffffff16908173ffffffffffffffffffffffffffffffffffffffff16815250506135ec816000815181106135bd57fe5b60200260200101517f0000000000000000000000000000000000000000000000000000000000000000876144fa565b604080517fd06ca61f000000000000000000000000000000000000000000000000000000008152600481018781526024820192835283516044830152835160009373ffffffffffffffffffffffffffffffffffffffff7f0000000000000000000000000000000000000000000000000000000000000000169363d06ca61f938b938893919260640190602080860191028083838c5b83811015613699578181015183820152602001613681565b50505050905001935050505060006040518083038186803b1580156136bd57600080fd5b505afa1580156136d1573d6000803e3d6000fd5b505050506040513d6000823e601f3d9081017fffffffffffffffffffffffffffffffffffffffffffffffffffffffffffffffe0168201604052602081101561371857600080fd5b810190808051604051939291908464010000000082111561373857600080fd5b90830190602082018581111561374d57600080fd5b825186602082028301116401000000008211171561376a57600080fd5b82525081516020918201928201910280838360005b8381101561379757818101518382015260200161377f565b505050509050016040525050506001815181106137b057fe5b602002602001015190507f000000000000000000000000000000000000000000000000000000000000000073ffffffffffffffffffffffffffffffffffffffff166338ed173987838530896040518663ffffffff1660e01b815260040180868152602001858152602001806020018473ffffffffffffffffffffffffffffffffffffffff1681526020018363ffffffff168152602001828103825285818151815260200191508051906020019060200280838360005b8381101561387e578181015183820152602001613866565b505050509050019650505050505050600060405180830381600087803b1580156138a757600080fd5b505af11580156138bb573d6000803e3d6000fd5b505050506040513d6000823e601f3d9081017fffffffffffffffffffffffffffffffffffffffffffffffffffffffffffffffe0168201604052602081101561390257600080fd5b810190808051604051939291908464010000000082111561392257600080fd5b90830190602082018581111561393757600080fd5b825186602082028301116401000000008211171561395457600080fd5b82525081516020918201928201910280838360005b83811015613981578181015183820152602001613969565b505050509050016040525050505080925050509392505050565b606060005b6139a8612a93565b8160ff161015613a425760006139fa606461095360068560ff16815481106139cc57fe5b600091825260209091200154889074010000000000000000000000000000000000000000900460ff16612f61565b9050613a388160068460ff1681548110613a1057fe5b60009182526020909120015473ffffffffffffffffffffffffffffffffffffffff168661414e565b50506001016139a0565b5092915050565b60006109fc83836040518060400160405280601e81526020017f536166654d6174683a207375627472616374696f6e206f766572666c6f7700008152506131e6565b73ffffffffffffffffffffffffffffffffffffffff8216613b0d57604080517f08c379a000000000000000000000000000000000000000000000000000000000815260206004820152601f60248201527f45524332303a206d696e7420746f20746865207a65726f206164647265737300604482015290519081900360640190fd5b613b196000838361166f565b600254613b269082613297565b60025573ffffffffffffffffffffffffffffffffffffffff8216600090815260208190526040902054613b599082613297565b73ffffffffffffffffffffffffffffffffffffffff83166000818152602081815260408083209490945583518581529351929391927fddf252ad1be2c89b69c2b068fc378daa952ba7f163c4a11628f55a4df523b3ef9281900390910190a35050565b6000613c5b84847f000000000000000000000000000000000000000000000000000000000000000073ffffffffffffffffffffffffffffffffffffffff1663ad5c46486040518163ffffffff1660e01b815260040160206040518083038186803b158015613c2957600080fd5b505afa158015613c3d573d6000803e3d6000fd5b505050506040513d6020811015613c5357600080fd5b505185614688565b949350505050565b600080805b613c70612a93565b8160ff161015613a4257600060068260ff1681548110613c8c57fe5b600091825260208220015474010000000000000000000000000000000000000000900460ff169150613cc360646109538885612f61565b90506000613d028260068660ff1681548110613cdb57fe5b60009182526020909120015473ffffffffffffffffffffffffffffffffffffffff166149a4565b9050613d20613d1960646109538460ff8816612f61565b8690613297565b94505060019092019150613c689050565b606080613d3c612a93565b67ffffffffffffffff81118015613d5257600080fd5b50604051908082528060200260200182016040528015613d7c578160200160208202803683370190505b509050600080613d8a61090c565b1115613dad57613daa613d9b61090c565b610953866402540be400612f61565b90505b60005b613db8612a93565b8160ff161015613ea857613e866402540be4006109538460068560ff1681548110613ddf57fe5b60009182526020918290200154604080517f70a08231000000000000000000000000000000000000000000000000000000008152306004820152905173ffffffffffffffffffffffffffffffffffffffff909216926370a0823192602480840193829003018186803b158015613e5457600080fd5b505afa158015613e68573d6000803e3d6000fd5b505050506040513d6020811015613e7e57600080fd5b505190612f61565b838260ff1681518110613e9557fe5b6020908102919091010152600101613db0565b50909392505050565b6060613ebc83613d31565b9050613ec83384614eb3565b6000613ed48284614319565b600754909150600090613efd9060ff808216610100909204811682011690610953908590612f61565b90506000613f33613f0e8484613a49565b60075462010000900473ffffffffffffffffffffffffffffffffffffffff168761414e565b600754909150613f609062010000900473ffffffffffffffffffffffffffffffffffffffff163383614ffd565b6140037f000000000000000000000000000000000000000000000000000000000000000073ffffffffffffffffffffffffffffffffffffffff1663ad5c46486040518163ffffffff1660e01b815260040160206040518083038186803b158015613fc957600080fd5b505afa158015613fdd573d6000803e3d6000fd5b505050506040513d6020811015613ff357600080fd5b5051613ffd612037565b84614ffd565b337f9dfaab8d9cf3cf8c531d0dbfcd7dcd22f353ccae0b4d1e96cfe491d86734ae7382848961403061090c565b61403861291d565b6040518086815260200185815260200184815260200183815260200180602001828103825283818151815260200191508051906020019060200280838360005b83811015614090578181015183820152602001614078565b50505050905001965050505050505060405180910390a2505050505050565b6000613c5b847f000000000000000000000000000000000000000000000000000000000000000073ffffffffffffffffffffffffffffffffffffffff1663ad5c46486040518163ffffffff1660e01b815260040160206040518083038186803b15801561411b57600080fd5b505afa15801561412f573d6000803e3d6000fd5b505050506040513d602081101561414557600080fd5b50518585614688565b60007f000000000000000000000000000000000000000000000000000000000000000073ffffffffffffffffffffffffffffffffffffffff1663ad5c46486040518163ffffffff1660e01b815260040160206040518083038186803b1580156141b657600080fd5b505afa1580156141ca573d6000803e3d6000fd5b505050506040513d60208110156141e057600080fd5b505173ffffffffffffffffffffffffffffffffffffffff84811691161480614206575083155b156142125750826109fc565b60408051600280825260608083018452926020830190803683370190505090507f000000000000000000000000000000000000000000000000000000000000000073ffffffffffffffffffffffffffffffffffffffff1663ad5c46486040518163ffffffff1660e01b815260040160206040518083038186803b15801561429857600080fd5b505afa1580156142ac573d6000803e3d6000fd5b505050506040513d60208110156142c257600080fd5b5051815182906000906142d157fe5b602002602001019073ffffffffffffffffffffffffffffffffffffffff16908173ffffffffffffffffffffffffffffffffffffffff1681525050838160018151811061357357fe5b600080805b614326612a93565b8160ff16101561439b576000614384868360ff168151811061434457fe5b602002602001015160068460ff168154811061435c57fe5b60009182526020909120015473ffffffffffffffffffffffffffffffffffffffff16876133a6565b90506143908382613297565b92505060010161431e565b509392505050565b6000818361440c576040517f08c379a000000000000000000000000000000000000000000000000000000000815260206004820181815283516024840152835190928392604490910191908501908083836000831561325457818101518382015260200161323c565b50600083858161441857fe5b0495945050505050565b6060614484826040518060400160405280602081526020017f5361666545524332303a206c6f772d6c6576656c2063616c6c206661696c65648152508573ffffffffffffffffffffffffffffffffffffffff1661508a9092919063ffffffff16565b80519091501561166f578080602001905160208110156144a357600080fd5b505161166f576040517f08c379a000000000000000000000000000000000000000000000000000000000815260040180806020018281038252602a8152602001806155b1602a913960400191505060405180910390fd5b8015806145a65750604080517fdd62ed3e00000000000000000000000000000000000000000000000000000000815230600482015273ffffffffffffffffffffffffffffffffffffffff848116602483015291519185169163dd62ed3e91604480820192602092909190829003018186803b15801561457857600080fd5b505afa15801561458c573d6000803e3d6000fd5b505050506040513d60208110156145a257600080fd5b5051155b6145fb576040517f08c379a00000000000000000000000000000000000000000000000000000000081526004018080602001828103825260368152602001806155db6036913960400191505060405180910390fd5b6040805173ffffffffffffffffffffffffffffffffffffffff8416602482015260448082018490528251808303909101815260649091019091526020810180517bffffffffffffffffffffffffffffffffffffffffffffffffffffffff167f095ea7b30000000000000000000000000000000000000000000000000000000017905261166f908490614422565b604080516002808252606080830184526000939092919060208301908036833701905050905084816000815181106146bc57fe5b602002602001019073ffffffffffffffffffffffffffffffffffffffff16908173ffffffffffffffffffffffffffffffffffffffff1681525050838160018151811061470457fe5b602002602001019073ffffffffffffffffffffffffffffffffffffffff16908173ffffffffffffffffffffffffffffffffffffffff16815250508060018151811061474b57fe5b602002602001015173ffffffffffffffffffffffffffffffffffffffff168160008151811061477657fe5b602002602001015173ffffffffffffffffffffffffffffffffffffffff16148061479e575085155b156147ac5785915050613c5b565b604080517fd06ca61f000000000000000000000000000000000000000000000000000000008152600481018881526024820192835283516044830152835160009373ffffffffffffffffffffffffffffffffffffffff7f0000000000000000000000000000000000000000000000000000000000000000169363d06ca61f938c938893919260640190602080860191028083838c5b83811015614859578181015183820152602001614841565b50505050905001935050505060006040518083038186803b15801561487d57600080fd5b505afa158015614891573d6000803e3d6000fd5b505050506040513d6000823e601f3d9081017fffffffffffffffffffffffffffffffffffffffffffffffffffffffffffffffe016820160405260208110156148d857600080fd5b81019080805160405193929190846401000000008211156148f857600080fd5b90830190602082018581111561490d57600080fd5b825186602082028301116401000000008211171561492a57600080fd5b82525081516020918201928201910280838360005b8381101561495757818101518382015260200161493f565b5050505090500160405250505060018151811061497057fe5b60200260200101519050831561499b576149926103e5610953836103e8612f61565b92505050613c5b565b9150613c5b9050565b60007f000000000000000000000000000000000000000000000000000000000000000073ffffffffffffffffffffffffffffffffffffffff1663ad5c46486040518163ffffffff1660e01b815260040160206040518083038186803b158015614a0c57600080fd5b505afa158015614a20573d6000803e3d6000fd5b505050506040513d6020811015614a3657600080fd5b505173ffffffffffffffffffffffffffffffffffffffff83811691161480614a5c575082155b15614a6957506000610906565b60007f000000000000000000000000000000000000000000000000000000000000000073ffffffffffffffffffffffffffffffffffffffff1663c45a01556040518163ffffffff1660e01b815260040160206040518083038186803b158015614ad157600080fd5b505afa158015614ae5573d6000803e3d6000fd5b505050506040513d6020811015614afb57600080fd5b5051604080517fad5c4648000000000000000000000000000000000000000000000000000000008152905191925060009173ffffffffffffffffffffffffffffffffffffffff8085169263e6a43905927f00000000000000000000000000000000000000000000000000000000000000009092169163ad5c464891600480820192602092909190829003018186803b158015614b9657600080fd5b505afa158015614baa573d6000803e3d6000fd5b505050506040513d6020811015614bc057600080fd5b5051604080517fffffffff0000000000000000000000000000000000000000000000000000000060e085901b16815273ffffffffffffffffffffffffffffffffffffffff92831660048201529188166024830152516044808301926020929190829003018186803b158015614c3457600080fd5b505afa158015614c48573d6000803e3d6000fd5b505050506040513d6020811015614c5e57600080fd5b5051604080517f0902f1ac0000000000000000000000000000000000000000000000000000000081529051919250600091829173ffffffffffffffffffffffffffffffffffffffff851691630902f1ac91600480820192606092909190829003018186803b158015614ccf57600080fd5b505afa158015614ce3573d6000803e3d6000fd5b505050506040513d6060811015614cf957600080fd5b508051602091820151604080517fad5c464800000000000000000000000000000000000000000000000000000000815290516dffffffffffffffffffffffffffff938416965092909116935060009273ffffffffffffffffffffffffffffffffffffffff7f0000000000000000000000000000000000000000000000000000000000000000169263ad5c4648926004808201939291829003018186803b158015614da257600080fd5b505afa158015614db6573d6000803e3d6000fd5b505050506040513d6020811015614dcc57600080fd5b5051604080517f0dfe1681000000000000000000000000000000000000000000000000000000008152905173ffffffffffffffffffffffffffffffffffffffff92831692871691630dfe1681916004808301926020929190829003018186803b158015614e3857600080fd5b505afa158015614e4c573d6000803e3d6000fd5b505050506040513d6020811015614e6257600080fd5b505173ffffffffffffffffffffffffffffffffffffffff161415614e87575081614e8a565b50805b614ea3614e97828a613297565b61095383612710612f61565b6127100398975050505050505050565b73ffffffffffffffffffffffffffffffffffffffff8216614f1f576040517f08c379a00000000000000000000000000000000000000000000000000000000081526004018080602001828103825260218152602001806154e06021913960400191505060405180910390fd5b614f2b8260008361166f565b614f75816040518060600160405280602281526020016153226022913973ffffffffffffffffffffffffffffffffffffffff851660009081526020819052604090205491906131e6565b73ffffffffffffffffffffffffffffffffffffffff8316600090815260208190526040902055600254614fa89082613a49565b60025560408051828152905160009173ffffffffffffffffffffffffffffffffffffffff8516917fddf252ad1be2c89b69c2b068fc378daa952ba7f163c4a11628f55a4df523b3ef9181900360200190a35050565b6040805173ffffffffffffffffffffffffffffffffffffffff8416602482015260448082018490528251808303909101815260649091019091526020810180517bffffffffffffffffffffffffffffffffffffffffffffffffffffffff167fa9059cbb0000000000000000000000000000000000000000000000000000000017905261166f908490614422565b6060613c5b84846000858561509e856151f5565b61510957604080517f08c379a000000000000000000000000000000000000000000000000000000000815260206004820152601d60248201527f416464726573733a2063616c6c20746f206e6f6e2d636f6e7472616374000000604482015290519081900360640190fd5b600060608673ffffffffffffffffffffffffffffffffffffffff1685876040518082805190602001908083835b6020831061517357805182527fffffffffffffffffffffffffffffffffffffffffffffffffffffffffffffffe09092019160209182019101615136565b6001836020036101000a03801982511681845116808217855250505050505090500191505060006040518083038185875af1925050503d80600081146151d5576040519150601f19603f3d011682016040523d82523d6000602084013e6151da565b606091505b50915091506151ea8282866151fb565b979650505050505050565b3b151590565b6060831561520a5750816109fc565b82511561521a5782518084602001fd5b6040517f08c379a000000000000000000000000000000000000000000000000000000000815260206004820181815284516024840152845185939192839260440191908501908083836000831561325457818101518382015260200161323c565b5080546000825590600052602060002090810190615299919061529c565b50565b5b808211156152d35780547fffffffffffffffffffffff00000000000000000000000000000000000000000016815560010161529d565b509056fe417474656d7074656420746f206465706f736974206d6f7265207468616e2062616c616e63652e45524332303a207472616e7366657220746f20746865207a65726f206164647265737345524332303a206275726e20616d6f756e7420657863656564732062616c616e63654f776e61626c653a206e6577206f776e657220697320746865207a65726f206164647265737345524332303a20617070726f766520746f20746865207a65726f2061646472657373417474656d707420746f207365742070657263656e7461676520686967686572207468616e2032252e546f74616c20746f6b656e2070657263656e74616765206973206e6f7420313030252e45524332303a207472616e7366657220616d6f756e7420657863656564732062616c616e6365417474656d707420746f207769746864726177206d6f7265207468616e2031303025206f6620746865206173736574537472617465677920746f6b656e73206c656e67746820646f65736e2774206d6174636820746f6b656e2070657263656e74616765206c656e6774682e536166654d6174683a206d756c7469706c69636174696f6e206f766572666c6f7745524332303a207472616e7366657220616d6f756e74206578636565647320616c6c6f77616e6365417474656d707420746f207769746864726177206d6f7265207468616e2075736572277320686f6c64696e672e45524332303a206275726e2066726f6d20746865207a65726f206164647265737345524332303a207472616e736665722066726f6d20746865207a65726f2061646472657373507269636520696d70616374206f6e20746869732073776170206973206c6172676572207468616e20312520706c7573206665652070657263656e746167652e45524332303a20617070726f76652066726f6d20746865207a65726f206164647265737353657474696e6720737472617465677920746f206d6f7265207468616e203520746f6b656e732e5361666545524332303a204552433230206f7065726174696f6e20646964206e6f7420737563636565645361666545524332303a20617070726f76652066726f6d206e6f6e2d7a65726f20746f206e6f6e2d7a65726f20616c6c6f77616e6365436f6e7472616374206973206e6f7420616c6c6f77656420746f207370656e6420757365722773204452432e45524332303a2064656372656173656420616c6c6f77616e63652062656c6f77207a65726fa2646970667358221220d66e1ff74662025b00df3d17e10ab0529c8e3515361fd4c4b044888fcf5f86a564736f6c634300060c0033",
  "immutableReferences": {
    "71": [
      {
        "length": 32,
        "start": 4181
      },
      {
        "length": 32,
        "start": 4464
      },
      {
        "length": 32,
        "start": 11687
      },
      {
        "length": 32,
        "start": 13226
      },
      {
        "length": 32,
        "start": 13524
      },
      {
        "length": 32,
        "start": 13767
      },
      {
        "length": 32,
        "start": 13892
      },
      {
        "length": 32,
        "start": 14268
      },
      {
        "length": 32,
        "start": 15301
      },
      {
        "length": 32,
        "start": 16229
      },
      {
        "length": 32,
        "start": 16567
      },
      {
        "length": 32,
        "start": 16722
      },
      {
        "length": 32,
        "start": 16948
      },
      {
        "length": 32,
        "start": 18436
      },
      {
        "length": 32,
        "start": 18856
      },
      {
        "length": 32,
        "start": 19053
      },
      {
        "length": 32,
        "start": 19277
      },
      {
        "length": 32,
        "start": 19807
      }
    ]
  },
  "source": "// SPDX-License-Identifier: AGPL-3.0-or-later\n\npragma solidity =0.6.12;\n\nimport \"@openzeppelin/contracts/access/Ownable.sol\";\nimport \"@openzeppelin/contracts/math/SafeMath.sol\";\nimport \"@openzeppelin/contracts/token/ERC20/ERC20.sol\";\nimport \"@openzeppelin/contracts/token/ERC20/SafeERC20.sol\";\nimport \"@openzeppelin/contracts/utils/ReentrancyGuard.sol\";\n\nimport \"./interfaces/Uniswap/IUniswapV2Factory.sol\";\nimport \"./interfaces/Uniswap/IUniswapV2Pair.sol\";\nimport \"./interfaces/Uniswap/IUniswapV2Router02.sol\";\nimport \"./interfaces/IDigitalReserve.sol\";\n\n/**\n * @dev Implementation of Digital Reserve contract.\n * Digital Reserve contract converts user's DRC into a set of SoV assets using the Uniswap router,\n * and hold these assets for it's users.\n * When users initiate a withdrawal action, the contract converts a share of the vault,\n * that the user is requesting, to DRC and sends it back to their wallet.\n */\ncontract DigitalReserve is IDigitalReserve, ERC20, Ownable {\n    using SafeMath for uint256;\n\n    struct StategyToken {\n        address tokenAddress;\n        uint8 tokenPercentage;\n    }\n\n    /**\n     * @dev Set Uniswap router address, DRC token address, DR name.\n     */\n    constructor(\n        address _router,\n        address _drcAddress,\n        string memory _name,\n        string memory _symbol\n    ) public ERC20(_name, _symbol) {\n        drcAddress = _drcAddress;\n        uniswapRouter = IUniswapV2Router02(_router);\n    }\n\n    StategyToken[] private _strategyTokens;\n    uint8 private _feeFraction = 1;\n    uint8 private _feeBase = 100;\n    uint8 private constant _priceDecimals = 18;\n\n    address private drcAddress;\n\n    bool private depositEnabled = false;\n\n    IUniswapV2Router02 private immutable uniswapRouter;\n\n    /**\n     * @dev See {IDigitalReserve-strategyTokenCount}.\n     */\n    function strategyTokenCount() public view override returns (uint256) {\n        return _strategyTokens.length;\n    }\n\n    /**\n     * @dev See {IDigitalReserve-strategyTokens}.\n     */\n    function strategyTokens(uint8 index) external view override returns (address, uint8) {\n        return (_strategyTokens[index].tokenAddress, _strategyTokens[index].tokenPercentage);\n    }\n\n    /**\n     * @dev See {IDigitalReserve-withdrawalFee}.\n     */\n    function withdrawalFee() external view override returns (uint8, uint8) {\n        return (_feeFraction, _feeBase);\n    }\n\n    /**\n     * @dev See {IDigitalReserve-priceDecimals}.\n     */\n    function priceDecimals() external view override returns (uint8) {\n        return _priceDecimals;\n    }\n\n    /**\n     * @dev See {IDigitalReserve-totalTokenStored}.\n     */\n    function totalTokenStored() public view override returns (uint256[] memory) {\n        uint256[] memory amounts = new uint256[](strategyTokenCount());\n        for (uint8 i = 0; i < strategyTokenCount(); i++) {\n            amounts[i] = IERC20(_strategyTokens[i].tokenAddress).balanceOf(address(this));\n        }\n        return amounts;\n    }\n\n    /**\n     * @dev See {IDigitalReserve-getUserVaultInDrc}.\n     */\n    function getUserVaultInDrc(\n        address user, \n        uint8 percentage\n    ) public view override returns (uint256, uint256, uint256) {\n        uint256[] memory userStrategyTokens = _getStrategyTokensByPodAmount(balanceOf(user).mul(percentage).div(100));\n        uint256 userVaultWorthInEth = _getEthAmountByStrategyTokensAmount(userStrategyTokens, true);\n        uint256 userVaultWorthInEthAfterSwap = _getEthAmountByStrategyTokensAmount(userStrategyTokens, false);\n\n        uint256 drcAmountBeforeFees = _getTokenAmountByEthAmount(userVaultWorthInEth, drcAddress, true);\n\n        uint256 fees = userVaultWorthInEthAfterSwap.mul(_feeFraction).div(_feeBase + _feeFraction);\n        uint256 drcAmountAfterFees = _getTokenAmountByEthAmount(userVaultWorthInEthAfterSwap.sub(fees), drcAddress, false);\n\n        return (drcAmountBeforeFees, drcAmountAfterFees, fees);\n    }\n\n    /**\n     * @dev See {IDigitalReserve-getProofOfDepositPrice}.\n     */\n    function getProofOfDepositPrice() public view override returns (uint256) {\n        uint256 proofOfDepositPrice = 0;\n        if (totalSupply() > 0) {\n            proofOfDepositPrice = _getEthAmountByStrategyTokensAmount(totalTokenStored(), true).mul(1e18).div(totalSupply());\n        }\n        return proofOfDepositPrice;\n    }\n\n    /**\n     * @dev See {IDigitalReserve-depositPriceImpact}.\n     */\n    function depositPriceImpact(uint256 drcAmount) public view override returns (uint256) {\n        uint256 ethWorth = _getEthAmountByTokenAmount(drcAmount, drcAddress, false);\n        return _getEthToStrategyTokensPriceImpact(ethWorth);\n    }\n\n    /**\n     * @dev See {IDigitalReserve-depositDrc}.\n     */\n    function depositDrc(uint256 drcAmount, uint32 deadline) external override {\n        require(strategyTokenCount() >= 1, \"Strategy hasn't been set.\");\n        require(depositEnabled, \"Deposit is disabled.\");\n        require(IERC20(drcAddress).allowance(msg.sender, address(this)) >= drcAmount, \"Contract is not allowed to spend user's DRC.\");\n        require(IERC20(drcAddress).balanceOf(msg.sender) >= drcAmount, \"Attempted to deposit more than balance.\");\n\n        uint256 swapPriceImpact = depositPriceImpact(drcAmount);\n        uint256 feeImpact = (_feeFraction * 10000) / (_feeBase + _feeFraction);\n        require(swapPriceImpact <= 100 + feeImpact, \"Price impact on this swap is larger than 1% plus fee percentage.\");\n\n        SafeERC20.safeTransferFrom(IERC20(drcAddress), msg.sender, address(this), drcAmount);\n\n        // Get current unit price before adding tokens to vault\n        uint256 currentPodUnitPrice = getProofOfDepositPrice();\n\n        uint256 ethConverted = _convertTokenToEth(drcAmount, drcAddress, deadline);\n        _convertEthToStrategyTokens(ethConverted, deadline);\n\n        uint256 podToMint = 0;\n        if (totalSupply() == 0) {\n            podToMint = drcAmount.mul(1e15);\n        } else {\n            uint256 vaultTotalInEth = _getEthAmountByStrategyTokensAmount(totalTokenStored(), true);\n            uint256 newPodTotal = vaultTotalInEth.mul(1e18).div(currentPodUnitPrice);\n            podToMint = newPodTotal.sub(totalSupply());\n        }\n\n        _mint(msg.sender, podToMint);\n\n        emit Deposit(msg.sender, drcAmount, podToMint, totalSupply(), totalTokenStored());\n    }\n\n    /**\n     * @dev See {IDigitalReserve-withdrawDrc}.\n     */\n    function withdrawDrc(uint256 drcAmount, uint32 deadline) external override {\n        require(balanceOf(msg.sender) > 0, \"Vault balance is 0\");\n        \n        address[] memory path = new address[](2);\n        path[0] = uniswapRouter.WETH();\n        path[1] = drcAddress;\n\n        uint256 ethNeeded = uniswapRouter.getAmountsIn(drcAmount, path)[0];\n        uint256 ethNeededPlusFee = ethNeeded.mul(_feeBase + _feeFraction).div(_feeBase);\n\n        uint256[] memory userStrategyTokens = _getStrategyTokensByPodAmount(balanceOf(msg.sender));\n        uint256 userVaultWorth = _getEthAmountByStrategyTokensAmount(userStrategyTokens, false);\n\n        require(userVaultWorth >= ethNeededPlusFee, \"Attempt to withdraw more than user's holding.\");\n\n        uint256 amountFraction = ethNeededPlusFee.mul(1e10).div(userVaultWorth);\n        uint256 podToBurn = balanceOf(msg.sender).mul(amountFraction).div(1e10);\n\n        _withdrawProofOfDeposit(podToBurn, deadline);\n    }\n\n    /**\n     * @dev See {IDigitalReserve-withdrawPercentage}.\n     */\n    function withdrawPercentage(uint8 percentage, uint32 deadline) external override {\n        require(percentage <= 100, \"Attempt to withdraw more than 100% of the asset\");\n\n        uint256 podToBurn = balanceOf(msg.sender).mul(percentage).div(100);\n        _withdrawProofOfDeposit(podToBurn, deadline);\n    }\n\n    /**\n     * @dev Enable or disable deposit.\n     * @param status Deposit allowed or not\n     * Disable deposit if it is to protect users' fund if there's any security issue or assist DR upgrade.\n     */\n    function changeDepositStatus(bool status) external onlyOwner {\n        depositEnabled = status;\n    }\n\n    /**\n     * @dev Change withdrawal fee percentage.\n     * If 1%, then input (1,100)\n     * If 0.5%, then input (5,1000)\n     * @param withdrawalFeeFraction_ Fraction of withdrawal fee based on withdrawalFeeBase_\n     * @param withdrawalFeeBase_ Fraction of withdrawal fee base\n     */\n    function changeFee(uint8 withdrawalFeeFraction_, uint8 withdrawalFeeBase_) external onlyOwner {\n        require(withdrawalFeeFraction_ <= withdrawalFeeBase_, \"Fee fraction exceeded base.\");\n        uint8 percentage = (withdrawalFeeFraction_ * 100) / withdrawalFeeBase_;\n        require(percentage <= 2, \"Attempt to set percentage higher than 2%.\"); // Requested by community\n\n        _feeFraction = withdrawalFeeFraction_;\n        _feeBase = withdrawalFeeBase_;\n    }\n\n    /**\n     * @dev Set or change DR strategy tokens and allocations.\n     * @param strategyTokens_ Array of strategy tokens.\n     * @param tokenPercentage_ Array of strategy tokens' percentage allocations.\n     * @param deadline Unix timestamp after which the transaction will revert.\n     */\n    function changeStrategy(\n        address[] calldata strategyTokens_,\n        uint8[] calldata tokenPercentage_,\n        uint32 deadline\n    ) external onlyOwner {\n        require(strategyTokens_.length >= 1, \"Setting strategy to 0 tokens.\");\n        require(strategyTokens_.length <= 5, \"Setting strategy to more than 5 tokens.\");\n        require(strategyTokens_.length == tokenPercentage_.length, \"Strategy tokens length doesn't match token percentage length.\");\n\n        uint256 totalPercentage = 0;\n        for (uint8 i = 0; i < tokenPercentage_.length; i++) {\n            totalPercentage = totalPercentage.add(tokenPercentage_[i]);\n        }\n        require(totalPercentage == 100, \"Total token percentage is not 100%.\");\n\n        address[] memory oldTokens = new address[](strategyTokenCount());\n        uint8[] memory oldPercentage = new uint8[](strategyTokenCount());\n        for (uint8 i = 0; i < strategyTokenCount(); i++) {\n            oldTokens[i] = _strategyTokens[i].tokenAddress;\n            oldPercentage[i] = _strategyTokens[i].tokenPercentage;\n        }\n\n        // Before mutate strategyTokens, convert current strategy tokens to ETH\n        uint256 ethConverted = _convertStrategyTokensToEth(totalTokenStored(), deadline);\n\n        delete _strategyTokens;\n        \n        for (uint8 i = 0; i < strategyTokens_.length; i++) {\n            _strategyTokens.push(StategyToken(strategyTokens_[i], tokenPercentage_[i]));\n        }\n\n        _convertEthToStrategyTokens(ethConverted, deadline);\n\n        emit StrategyChange(oldTokens, oldPercentage, strategyTokens_, tokenPercentage_, totalTokenStored());\n    }\n\n    /**\n     * @dev Realigning the weighting of a portfolio of assets to the strategy allocation that is defined.\n     * Only convert the amount that's necessory to convert to not be charged 0.3% uniswap fee for everything.\n     * This in total saves 0.6% fee for majority of the assets.\n     * @param deadline Unix timestamp after which the transaction will revert.\n     */\n    function rebalance(uint32 deadline) external onlyOwner {\n        require(strategyTokenCount() > 0, \"Strategy hasn't been set\");\n\n        // Get each tokens worth and the total worth in ETH\n        uint256 totalWorthInEth = 0;\n        uint256[] memory tokensWorthInEth = new uint256[](strategyTokenCount());\n\n        for (uint8 i = 0; i < strategyTokenCount(); i++) {\n            address currentToken = _strategyTokens[i].tokenAddress;\n            uint256 tokenWorth = _getEthAmountByTokenAmount(IERC20(currentToken).balanceOf(address(this)), currentToken, true);\n            totalWorthInEth = totalWorthInEth.add(tokenWorth);\n            tokensWorthInEth[i] = tokenWorth;\n        }\n\n        address[] memory strategyTokensArray = new address[](strategyTokenCount()); // Get percentages for event param\n        uint8[] memory percentageArray = new uint8[](strategyTokenCount()); // Get percentages for event param\n        uint256 totalInEthToConvert = 0; // Get total token worth in ETH needed to be converted\n        uint256 totalEthConverted = 0; // Get total token worth in ETH needed to be converted\n        uint256[] memory tokenInEthNeeded = new uint256[](strategyTokenCount()); // Get token worth need to be filled\n\n        for (uint8 i = 0; i < strategyTokenCount(); i++) {\n            strategyTokensArray[i] =  _strategyTokens[i].tokenAddress;\n            percentageArray[i] = _strategyTokens[i].tokenPercentage;\n\n            uint256 tokenShouldWorth = totalWorthInEth.mul(_strategyTokens[i].tokenPercentage).div(100);\n\n            if (tokensWorthInEth[i] <= tokenShouldWorth) {\n                // If token worth less than should be, calculate the diff and store as needed\n                tokenInEthNeeded[i] = tokenShouldWorth.sub(tokensWorthInEth[i]);\n                totalInEthToConvert = totalInEthToConvert.add(tokenInEthNeeded[i]);\n            } else {\n                tokenInEthNeeded[i] = 0;\n\n                // If token worth more than should be, convert the overflowed amount to ETH\n                uint256 tokenInEthOverflowed = tokensWorthInEth[i].sub(tokenShouldWorth);\n                uint256 tokensToConvert = _getTokenAmountByEthAmount(tokenInEthOverflowed, _strategyTokens[i].tokenAddress, true);\n                uint256 ethConverted = _convertTokenToEth(tokensToConvert, _strategyTokens[i].tokenAddress, deadline);\n                totalEthConverted = totalEthConverted.add(ethConverted);\n            }\n            // Need the total value to help calculate how to distributed the converted ETH\n        }\n\n        // Distribute newly converted ETH by portion of each token to be converted to, and convert to that token needed.\n        // Note: totalEthConverted would be a bit smaller than totalInEthToConvert due to Uniswap fee.\n        // Converting everything is another way of rebalancing, but Uniswap would take 0.6% fee on everything.\n        // In this method we reach the closest number with the lowest possible swapping fee.\n        if(totalInEthToConvert > 0) {\n            for (uint8 i = 0; i < strategyTokenCount(); i++) {\n                uint256 ethToConvert = totalEthConverted.mul(tokenInEthNeeded[i]).div(totalInEthToConvert);\n                _convertEthToToken(ethToConvert, _strategyTokens[i].tokenAddress, deadline);\n            }\n        }\n        emit Rebalance(strategyTokensArray, percentageArray, totalTokenStored());\n    }\n\n    /**\n     * @dev Withdraw DRC by DR-POD amount to burn.\n     * @param podToBurn Amount of DR-POD to burn in exchange for DRC.\n     * @param deadline Unix timestamp after which the transaction will revert.\n     */\n    function _withdrawProofOfDeposit(uint256 podToBurn, uint32 deadline) private {\n        uint256[] memory strategyTokensToWithdraw = _getStrategyTokensByPodAmount(podToBurn);\n\n        _burn(msg.sender, podToBurn);\n\n        uint256 ethConverted = _convertStrategyTokensToEth(strategyTokensToWithdraw, deadline);\n        uint256 fees = ethConverted.mul(_feeFraction).div(_feeBase + _feeFraction);\n\n        uint256 drcAmount = _convertEthToToken(ethConverted.sub(fees), drcAddress, deadline);\n\n        SafeERC20.safeTransfer(IERC20(drcAddress), msg.sender, drcAmount);\n        SafeERC20.safeTransfer(IERC20(uniswapRouter.WETH()), owner(), fees);\n\n        emit Withdraw(msg.sender, drcAmount, fees, podToBurn, totalSupply(), totalTokenStored());\n    }\n\n    /**\n     * @dev Get ETH worth of a certain amount of a token.\n     * @param _amount Amount of token to convert.\n     * @param _fromAddress Address of token to convert from.\n     * @param _toAddress Address of token to convert to.\n     * @param excludeFees If uniswap fees is considered.\n     */\n    function _getAAmountByBAmount(\n        uint256 _amount,\n        address _fromAddress,\n        address _toAddress,\n        bool excludeFees\n    ) private view returns (uint256) {\n        address[] memory path = new address[](2);\n        path[0] = _fromAddress;\n        path[1] = _toAddress;\n\n        if (path[0] == path[1] || _amount == 0) {\n            return _amount;\n        }\n\n        uint256 amountOut = uniswapRouter.getAmountsOut(_amount, path)[1];\n\n        if (excludeFees) {\n            return amountOut.mul(1000).div(997);\n        } else {\n            return amountOut;\n        }\n    }\n\n    /**\n     * @dev Get the worth in a token of a certain amount of ETH.\n     * @param _amount Amount of ETH to convert.\n     * @param _tokenAddress Address of the token to convert to.\n     * @param excludeFees If uniswap fees is considered.\n     */\n    function _getTokenAmountByEthAmount(\n        uint256 _amount,\n        address _tokenAddress,\n        bool excludeFees\n    ) private view returns (uint256) {\n        return _getAAmountByBAmount(_amount, uniswapRouter.WETH(), _tokenAddress, excludeFees);\n    }\n\n    /**\n     * @dev Get ETH worth of a certain amount of a token.\n     * @param _amount Amount of token to convert.\n     * @param _tokenAddress Address of token to convert from.\n     * @param excludeFees If uniswap fees is considered.\n     */\n    function _getEthAmountByTokenAmount(\n        uint256 _amount,\n        address _tokenAddress,\n        bool excludeFees\n    ) private view returns (uint256) {\n        return _getAAmountByBAmount(_amount, _tokenAddress, uniswapRouter.WETH(), excludeFees);\n    }\n\n    /**\n     * @dev Get ETH worth of an array of strategy tokens.\n     * @param strategyTokensBalance_ Array amounts of strategy tokens to convert.\n     * @param excludeFees If uniswap fees is considered.\n     */\n    function _getEthAmountByStrategyTokensAmount(\n        uint256[] memory strategyTokensBalance_, \n        bool excludeFees\n    ) private view returns (uint256) {\n        uint256 amountOut = 0;\n        address[] memory path = new address[](2);\n        path[1] = uniswapRouter.WETH();\n\n        for (uint8 i = 0; i < strategyTokenCount(); i++) {\n            address tokenAddress = _strategyTokens[i].tokenAddress;\n            path[0] = tokenAddress;\n            uint256 tokenAmount = strategyTokensBalance_[i];\n            uint256 tokenAmountInEth = _getEthAmountByTokenAmount(tokenAmount, tokenAddress, excludeFees);\n\n            amountOut = amountOut.add(tokenAmountInEth);\n        }\n        return amountOut;\n    }\n\n    /**\n     * @dev Get DR-POD worth in an array of strategy tokens.\n     * @param _amount Amount of DR-POD to convert.\n     */\n    function _getStrategyTokensByPodAmount(uint256 _amount) private view returns (uint256[] memory) {\n        uint256[] memory strategyTokenAmount = new uint256[](strategyTokenCount());\n\n        uint256 podFraction = 0;\n        if(totalSupply() > 0){\n            podFraction = _amount.mul(1e10).div(totalSupply());\n        }\n        for (uint8 i = 0; i < strategyTokenCount(); i++) {\n            strategyTokenAmount[i] = IERC20(_strategyTokens[i].tokenAddress).balanceOf(address(this)).mul(podFraction).div(1e10);\n        }\n        return strategyTokenAmount;\n    }\n\n    /**\n     * @dev Get price impact when swap ETH to a token via the Uniswap router.\n     * @param _amount Amount of eth to swap.\n     * @param _tokenAddress Address of token to swap to.\n     */\n    function _getEthToTokenPriceImpact(uint256 _amount, address _tokenAddress) private view returns (uint256) {\n        if(_tokenAddress == uniswapRouter.WETH() || _amount == 0) {\n            return 0;\n        }\n        address factory = uniswapRouter.factory();\n        address pair = IUniswapV2Factory(factory).getPair(uniswapRouter.WETH(), _tokenAddress);\n        (uint256 reserve0, uint256 reserve1, ) = IUniswapV2Pair(pair).getReserves();\n        uint256 reserveEth = 0;\n        if(IUniswapV2Pair(pair).token0() == uniswapRouter.WETH()) {\n            reserveEth = reserve0;\n        } else {\n            reserveEth = reserve1;\n        }\n        return 10000 - reserveEth.mul(10000).div(reserveEth.add(_amount));\n    }\n\n    /**\n     * @dev Get price impact when swap ETH to strategy tokens via the Uniswap router.\n     * @param _amount Amount of eth to swap.\n     */\n    function _getEthToStrategyTokensPriceImpact(uint256 _amount) private view returns (uint256) {\n        uint256 priceImpact = 0;\n        for (uint8 i = 0; i < strategyTokenCount(); i++) {\n            uint8 tokenPercentage = _strategyTokens[i].tokenPercentage;\n            uint256 amountToConvert = _amount.mul(tokenPercentage).div(100);\n            uint256 tokenSwapPriceImpact = _getEthToTokenPriceImpact(amountToConvert, _strategyTokens[i].tokenAddress);\n            priceImpact = priceImpact.add(tokenSwapPriceImpact.mul(tokenPercentage).div(100));\n        }\n        return priceImpact;\n    }\n\n    /**\n     * @dev Convert a token to WETH via the Uniswap router.\n     * @param _amount Amount of tokens to swap.\n     * @param _tokenAddress Address of token to swap.\n     * @param deadline Unix timestamp after which the transaction will revert.\n     */\n    function _convertTokenToEth(\n        uint256 _amount,\n        address _tokenAddress,\n        uint32 deadline\n    ) private returns (uint256) {\n        if (_tokenAddress == uniswapRouter.WETH() || _amount == 0) {\n            return _amount;\n        }\n        address[] memory path = new address[](2);\n        path[0] = _tokenAddress;\n        path[1] = uniswapRouter.WETH();\n        SafeERC20.safeApprove(IERC20(path[0]), address(uniswapRouter), _amount);\n        uint256 amountOut = uniswapRouter.getAmountsOut(_amount, path)[1];\n        uniswapRouter.swapExactTokensForTokens(_amount, amountOut, path, address(this), deadline);\n        return amountOut;\n    }\n\n    /**\n     * @dev Convert ETH to another token via the Uniswap router.\n     * @param _amount Amount of WETH to swap.\n     * @param _tokenAddress Address of token to swap to.\n     * @param deadline Unix timestamp after which the transaction will revert.\n     */\n    function _convertEthToToken(\n        uint256 _amount,\n        address _tokenAddress,\n        uint32 deadline\n    ) private returns (uint256) {\n        if (_tokenAddress == uniswapRouter.WETH() || _amount == 0) {\n            return _amount;\n        }\n        address[] memory path = new address[](2);\n        path[0] = uniswapRouter.WETH();\n        path[1] = _tokenAddress;\n        SafeERC20.safeApprove(IERC20(path[0]), address(uniswapRouter), _amount);\n        uint256 amountOut = uniswapRouter.getAmountsOut(_amount, path)[1];\n        uniswapRouter.swapExactTokensForTokens(_amount, amountOut, path, address(this), deadline);\n        return amountOut;\n    }\n\n    /**\n     * @dev Convert ETH to strategy tokens of DR in their allocation percentage.\n     * @param amount Amount of WETH to swap.\n     * @param deadline Unix timestamp after which the transaction will revert.\n     */\n    function _convertEthToStrategyTokens(\n        uint256 amount, \n        uint32 deadline\n    ) private returns (uint256[] memory) {\n        for (uint8 i = 0; i < strategyTokenCount(); i++) {\n            uint256 amountToConvert = amount.mul(_strategyTokens[i].tokenPercentage).div(100);\n            _convertEthToToken(amountToConvert, _strategyTokens[i].tokenAddress, deadline);\n        }\n    }\n\n    /**\n     * @dev Convert strategy tokens to WETH.\n     * @param amountToConvert Array of the amounts of strategy tokens to swap.\n     * @param deadline Unix timestamp after which the transaction will revert.\n     */\n    function _convertStrategyTokensToEth(\n        uint256[] memory amountToConvert, \n        uint32 deadline\n    ) private returns (uint256) {\n        uint256 ethConverted = 0;\n        for (uint8 i = 0; i < strategyTokenCount(); i++) {\n            uint256 amountConverted = _convertTokenToEth(amountToConvert[i], _strategyTokens[i].tokenAddress, deadline);\n            ethConverted = ethConverted.add(amountConverted);\n        }\n        return ethConverted;\n    }\n}\n",
  "sourcePath": "/Users/fayexue/if-x-github/digital-reserve/contracts/DigitalReserve.sol",
  "compiler": {
    "name": "solc",
    "version": "0.6.12+commit.27d51765.Emscripten.clang"
  },
  "schemaVersion": "3.3.3",
  "updatedAt": "2021-02-12T01:23:13.675Z",
  "networkType": "ethereum",
  "devdoc": {
    "details": "Implementation of Digital Reserve contract. Digital Reserve contract converts user's DRC into a set of SoV assets using the Uniswap router, and hold these assets for it's users. When users initiate a withdrawal action, the contract converts a share of the vault, that the user is requesting, to DRC and sends it back to their wallet.",
    "kind": "dev",
    "methods": {
      "allowance(address,address)": {
        "details": "See {IERC20-allowance}."
      },
      "approve(address,uint256)": {
        "details": "See {IERC20-approve}. Requirements: - `spender` cannot be the zero address."
      },
      "balanceOf(address)": {
        "details": "See {IERC20-balanceOf}."
      },
      "changeDepositStatus(bool)": {
        "details": "Enable or disable deposit.",
        "params": {
          "status": "Deposit allowed or not Disable deposit if it is to protect users' fund if there's any security issue or assist DR upgrade."
        }
      },
      "changeFee(uint8,uint8)": {
        "details": "Change withdrawal fee percentage. If 1%, then input (1,100) If 0.5%, then input (5,1000)",
        "params": {
          "withdrawalFeeBase_": "Fraction of withdrawal fee base",
          "withdrawalFeeFraction_": "Fraction of withdrawal fee based on withdrawalFeeBase_"
        }
      },
      "changeStrategy(address[],uint8[],uint32)": {
        "details": "Set or change DR strategy tokens and allocations.",
        "params": {
          "deadline": "Unix timestamp after which the transaction will revert.",
          "strategyTokens_": "Array of strategy tokens.",
          "tokenPercentage_": "Array of strategy tokens' percentage allocations."
        }
      },
      "constructor": {
        "details": "Set Uniswap router address, DRC token address, DR name."
      },
      "decimals()": {
        "details": "Returns the number of decimals used to get its user representation. For example, if `decimals` equals `2`, a balance of `505` tokens should be displayed to a user as `5,05` (`505 / 10 ** 2`). Tokens usually opt for a value of 18, imitating the relationship between Ether and Wei. This is the value {ERC20} uses, unless {_setupDecimals} is called. NOTE: This information is only used for _display_ purposes: it in no way affects any of the arithmetic of the contract, including {IERC20-balanceOf} and {IERC20-transfer}."
      },
      "decreaseAllowance(address,uint256)": {
        "details": "Atomically decreases the allowance granted to `spender` by the caller. This is an alternative to {approve} that can be used as a mitigation for problems described in {IERC20-approve}. Emits an {Approval} event indicating the updated allowance. Requirements: - `spender` cannot be the zero address. - `spender` must have allowance for the caller of at least `subtractedValue`."
      },
      "depositDrc(uint256,uint32)": {
        "details": "See {IDigitalReserve-depositDrc}."
      },
      "depositPriceImpact(uint256)": {
        "details": "See {IDigitalReserve-depositPriceImpact}."
      },
      "getProofOfDepositPrice()": {
        "details": "See {IDigitalReserve-getProofOfDepositPrice}."
      },
      "getUserVaultInDrc(address,uint8)": {
        "details": "See {IDigitalReserve-getUserVaultInDrc}."
      },
      "increaseAllowance(address,uint256)": {
        "details": "Atomically increases the allowance granted to `spender` by the caller. This is an alternative to {approve} that can be used as a mitigation for problems described in {IERC20-approve}. Emits an {Approval} event indicating the updated allowance. Requirements: - `spender` cannot be the zero address."
      },
      "name()": {
        "details": "Returns the name of the token."
      },
      "owner()": {
        "details": "Returns the address of the current owner."
      },
      "priceDecimals()": {
        "details": "See {IDigitalReserve-priceDecimals}."
      },
      "rebalance(uint32)": {
        "details": "Realigning the weighting of a portfolio of assets to the strategy allocation that is defined. Only convert the amount that's necessory to convert to not be charged 0.3% uniswap fee for everything. This in total saves 0.6% fee for majority of the assets.",
        "params": {
          "deadline": "Unix timestamp after which the transaction will revert."
        }
      },
      "renounceOwnership()": {
        "details": "Leaves the contract without owner. It will not be possible to call `onlyOwner` functions anymore. Can only be called by the current owner. NOTE: Renouncing ownership will leave the contract without an owner, thereby removing any functionality that is only available to the owner."
      },
      "strategyTokenCount()": {
        "details": "See {IDigitalReserve-strategyTokenCount}."
      },
      "strategyTokens(uint8)": {
        "details": "See {IDigitalReserve-strategyTokens}."
      },
      "symbol()": {
        "details": "Returns the symbol of the token, usually a shorter version of the name."
      },
      "totalSupply()": {
        "details": "See {IERC20-totalSupply}."
      },
      "totalTokenStored()": {
        "details": "See {IDigitalReserve-totalTokenStored}."
      },
      "transfer(address,uint256)": {
        "details": "See {IERC20-transfer}. Requirements: - `recipient` cannot be the zero address. - the caller must have a balance of at least `amount`."
      },
      "transferFrom(address,address,uint256)": {
        "details": "See {IERC20-transferFrom}. Emits an {Approval} event indicating the updated allowance. This is not required by the EIP. See the note at the beginning of {ERC20}. Requirements: - `sender` and `recipient` cannot be the zero address. - `sender` must have a balance of at least `amount`. - the caller must have allowance for ``sender``'s tokens of at least `amount`."
      },
      "transferOwnership(address)": {
        "details": "Transfers ownership of the contract to a new account (`newOwner`). Can only be called by the current owner."
      },
      "withdrawDrc(uint256,uint32)": {
        "details": "See {IDigitalReserve-withdrawDrc}."
      },
      "withdrawPercentage(uint8,uint32)": {
        "details": "See {IDigitalReserve-withdrawPercentage}."
      },
      "withdrawalFee()": {
        "details": "See {IDigitalReserve-withdrawalFee}."
      }
    },
    "version": 1
  },
  "userdoc": {
    "kind": "user",
    "methods": {},
    "version": 1
  }
}